:020000040001F9
:10800000F02E0020F58001000F8101001181010098
:108010000000000000000000000000000000000060
:1080200000000000000000000000000013810100BB
:108030000000000000000000158101001781010010
:1080400019810100198101001981010019810100C4
:10805000198101000000000009820100198101005E
:1080600019810100198101001981010019810100A4
:108070001981010019810100198101001981010094
:1080800019810100C18401001981010019810100D9
:10809000E984010019810100F184010019810100C6
:1080A000198101001981010000000000000000009A
:1080B00000000000000000000000000000000000C0
:1080C0000348854600F08EF80048004711B50100CE
:1080D000F02E0020401E00BF00BF00BF00BF00BF49
:1080E00000BF00BF00BF00BF00BF00BF00BFF1D195
:1080F000704700000321094802680A4302600848EB
:1081000002680A4302600748804707480047FEE7C5
:10811000FEE7FEE7FEE7FEE7FEE70000240500407D
:108120005405004029850100C180010030B50B468F
:10813000014600202022012409E00D46D5409D4241
:1081400005D31D469540491B2546954040191546C7
:10815000521E002DF1DC30BD70B5002425460028EC
:1081600001DA01244042002901DA01254942FFF7E2
:10817000DDFFAC4200D04042002C00D0494270BD2F
:1081800003460B439B0703D009E008C9121F08C030
:10819000042AFAD203E00B780370401C491C521EDB
:1081A000F9D27047D2B201E00270401C491EFBD2E6
:1081B00070470022F6E710B513460A4604461946F2
:1081C000FFF7F0FF204610BD30B5044600200346FF
:1081D00000E05B1C934203D2E05CCD5C401BF8D016
:1081E00030BD0000064C0125064E05E0E36807CCD3
:1081F0002B430C3C98471034B442F7D3FFF764FF8D
:1082000060D4010080D40100F0B587B000260020C2
:108210000690FF20013005900125002416E0059806
:1082200003F0D0FD00280BD000BF5648406828401E
:10823000002805D0059803F0BDFD304628430646CA
:108240006D000598001D80B20590641C042CE6D3D7
:10825000FF207D3003F0B6FD00280AD0FF207D30DE
:1082600003F0A8FD0120C007064300BF464800698F
:1082700006903007000F00282AD00125002425E0B1
:108280002846304000281FD000BF40485121090136
:108290004018A10040581F2109020840000A04901C
:1082A00000BF3A48512109014018A100405803215C
:1082B00009040840000C0390204601F08BF90746A2
:1082C00003990498B84700BF6D00641C042CD7D3F1
:1082D000F00FC007002852D000244EE02C48005771
:1082E000401C002848D02A48005D0490C021049812
:1082F00088430746384601F0B1F9029001F06AF967
:1083000003900398002836D0C021049808408011BB
:1083100002900120B840054600BF05200007072154
:1083200009024018B9004058032109040840000C14
:10833000019006982840002802D00198022806D013
:1083400006982840002815D10198032812D10298D8
:1083500003280BD10198022801D1032000E002205C
:1083600000903846009903F0ECFC00BF3846039AB1
:108370000299904700BF00BF641C042CAED307B025
:10838000F0BD0000006300400005005000600040A8
:1083900004260020C206D20E01219140014A11603C
:1083A0007047000080E200E0C206D20E0121914039
:1083B000014A11607047000000E100E0C206D20EE1
:1083C00001219140014A11607047000000E200E085
:1083D00010B5002819DA1A4A03071B0F083B9B083F
:1083E0009B00D2588307DC0EFF23A3409A438B07E0
:1083F0001B0E8407E40EA3401A43114B0407240FFD
:10840000083CA408A4001A5118E00E4A03231B02DA
:10841000D21883089B00D2588307DC0EFF23A340A9
:108420009A438B071B0E8407E40EA3401A43054BA7
:10843000032424021B198408A4001A5110BD000053
:108440001CED00E000E100E010B5002819DA1A4A3E
:1084500003071B0F083B9B089B00D2588307DC0EC9
:10846000FF23A3409A438B071B0E8407E40EA3400F
:108470001A43114B0407240F083CA408A4001A5106
:1084800018E00E4A03231B02D21883089B00D2581F
:108490008307DC0EFF23A3409A438B071B0E840740
:1084A000E40EA3401A43054B032424021B1984083D
:1084B000A4001A5110BD00001CED00E000E100E036
:1084C00010B500200749086000210648416081601E
:1084D000C1600020034940390860486004F090FD05
:1084E00010BD00004011014010B504F09DFC10BD0E
:1084F00070B50C480068002810D00A480068804712
:10850000044600BF2546002D06D000BF00221146BC
:10851000284600F083F900BF00BF01E002F0AAFD89
:1085200070BD0000C820002010B502F049FE0028F0
:1085300005D0074807494860C8130749886102F019
:1085400023FE002802D001200449886010BD0000ED
:10855000DFFF07C000050040006C0040000600403F
:1085600002E008C8121F08C1002AFAD170477047FC
:10857000002001E001C1121F002AFBD17047F7B5AE
:1085800082B0044616460025378800203080606B94
:1085900000280CD0616B08783B463246039904F002
:1085A00033F90546002D02D0284605B0F0BD206BFA
:1085B00000280AD03B463246206B039904F0AAFDFE
:1085C0000546002D01D02846EFE72E20005D00284B
:1085D0000BD02E21085D3B463246039902F091FEF6
:1085E0000546002D01D02846DFE72D20005D00283C
:1085F00009D03A463146039800F0DDFD0546002DCE
:1086000001D02846D1E7A078002809D03A46314663
:10861000039800F01BFA0546002D01D02846C4E758
:10862000E07800280BD0E17848B23B463246039907
:1086300002F0DEFA0546002D01D02846B5E7606855
:1086400000280CD00020616808563B46324603994A
:1086500004F083FD0546002D01D02846A5E72089BA
:1086600000280DDD019700960622022120460830E1
:10867000039B04F01DFE0546002D01D0284694E71B
:10868000208A00280DDD019700960722032120464D
:108690001030039B04F00CFE0546002D01D0284647
:1086A00083E7208B00280DDD019700961522142109
:1086B00020461830039B04F0FBFD0546002D01D039
:1086C000284672E7206A00280AD03B463246206AD4
:1086D000039901F0A3F90546002D01D0284664E76F
:1086E000606A00280AD03B463246606A039902F06D
:1086F000C9FF0546002D01D0284656E72C20005D15
:1087000000280ADD3B4632462046039904F097F8DC
:108710000546002D01D0284647E7207800280AD0DA
:108720003B4632462046039902F0E8FF0546002DFD
:1087300001D0284639E7284637E70146C8780422A1
:108740001040002801D1072070470020FCE710B539
:1087500001220221002000F0CDFE044600BF002CC3
:1087600003D0072C01D0204610BD00BF07220221F4
:10877000012000F0BFFE044600BF002C03D0072CF0
:1087800001D02046F0E700BF0A220021084600F091
:10879000B1FE044600BF002C03D0072C01D02046B8
:1087A000E2E700BF0020DFE730B599B038210BA821
:1087B000FFF7FFFC022108A8017301218173062144
:1087C000C17301216846818712491091242102A8B2
:1087D000FFF7EFFC0121684601754B20C0000690B1
:1087E000B420079000200C4B02AA014600900BA871
:1087F00000F0BAF9044600BF2546002D06D000BFA0
:1088000000221146284600F009F800BF00BF19B049
:1088100030BD000004200020E9BD010000BF00BF02
:1088200000BF00BF00BFBFF34F8F00BF00BF00BF3E
:1088300006480749C86000BF00BF00BFBFF34F8FA5
:1088400000BF00BF00BF00BF00BFFDE70400FA0586
:1088500000ED00E0F8B504460D46164603480768EB
:10886000324629462046B847F8BD0000A025002022
:10887000F8B505460C4627780C21A0684843064900
:108880000E580648006800902A46394620460830AF
:108890002369B047F8BD0000D826002090200020B2
:1088A00010B504460648007814225043044A121DAD
:1088B00081182046FFF7DCFF042004F03BF810BDD0
:1088C0000C26002010B503460C460D480068002811
:1088D00001D1082010BD002A01D10720FAE7002BA2
:1088E00001D10720F6E71868007C002801D0082095
:1088F000F0E71968002008744C744A6100BFE9E78A
:10890000A8200020FFB581B00E4614461F46204621
:108910008107890F002901D1012100E000210029F0
:1089200002D1072005B0F0BD002C04D100201C4965
:1089300008600720F6E703F03BFF1A4807600320B2
:108940001949087016480460183400250CE0E90045
:10895000134A1268881800210170417086704460C3
:10896000182171430C196D1C032DF0DB00200F49F9
:1089700008600F4908700F4908701420FFF70AFDBE
:1089800003211420FFF760FD1420FFF70DFD01986F
:1089900003F0E4FE03F0DCFE074908600020C1E7B5
:1089A000A8200020C0200020A4200020AC2000200F
:1089B000BC200020BD200020B0200020FEB50446D1
:1089C0000D461746264612480068002801D10820A7
:1089D000FEBD002C01D10820FAE7052D01D20720A9
:1089E000F6E77069002801D10820F1E7707C0128C2
:1089F00001D1284600E00020029004F02FFC0097EF
:108A000001902A463146029B04F0AEFAE0E70000EE
:108A1000A820002070B5044625460B4800680028B1
:108A200001D1082070BD002C02D06869002801D156
:108A30000820F7E70020287404F010FC06462946B9
:108A400004F0BEFAEEE70000A8200020F8B50546C5
:108A50000C4617462088001DB84201D90C20F8BDED
:108A6000684679DF0646002E01D03046F7E703203E
:108A7000218868542088401C20801920218868544F
:108A80002088401C2080208841196846008804F016
:108A90007FFB2188401820800020E0E770B500228D
:108AA0000121090408480068FFF788FF044600BF59
:108AB0002546002D06D000BF002211462846FFF7AC
:108AC000ADFE00BF00BF70BDE4D301000146880BBE
:108AD0008003002801D1012070470020FCE7F3B596
:108AE00093B00D461F21129111911398002814D0B4
:108AF0001398FFF722FE0446002C02D0204615B042
:108B0000F0BD12AA09A91398FFF739FD0446002CFD
:108B100001D02046F3E709AE02E0002600201290C3
:108B2000002D13D0284603F065FF0446002C01D029
:108B30002046E4E711AA01A92846FFF720FD0446D4
:108B4000002C01D02046DAE701AF02E00027002028
:108B5000119010A88088C3B210A80089C1B23A460B
:108B6000304672DFCBE70000F8B504460F461546E5
:108B70001E46002C01D0002D01D10E20F8BD002092
:108B80004849087048480660484906980860242209
:108B900029464748FFF7F4FA00F04CF945484649A2
:108BA00008604648886038214548FFF702FB207876
:108BB00043490870A0788870E078C8706078487081
:108BC000626920694A6108610846E268A168C2607A
:108BD0008160E269A169C2618161606A00281BD07D
:108BE00038483749486238498160606A00883449AA
:108BF000496A0880606A80883149496A8880002013
:108C000005E0616A8968095C2F4A1154401C2C49AF
:108C1000496A89888142F4D8A06A002824D02B4967
:108C20002B4881602649886228492548806A8160EE
:108C3000A06A80882249896A8880A06A00882049C1
:108C4000896A0880002005E0A16A8968095C1F4ADA
:108C50001154401C1A49896A89888142F4D82C2011
:108C6000015D174820300173206A00280BD0194895
:108C700013490862206A4088096A4880206A00888F
:108C80000F49096A08806068002804D012480C491E
:108C900048606068486039460948FFF720FF009047
:108CA00000986BE73820002030200020342000207E
:108CB0006C230020A023002090230020C02300204C
:108CC00034230020E0230020EC230020182400207F
:108CD0000C2400203C2000204020002070B50446D9
:108CE0002088102804D0112806D0192869D11AE04C
:108CF000A0883549088065E0002034490870A088C4
:108D00003149098888420DD1012000F09BF80546C1
:108D1000002D07D02E480068002803D028462C4993
:108D2000096888474EE0A079002849D12948007891
:108D3000012806D0022813D0032820D004283DD1D2
:108D40002FE0022000F07EF80546002D07D02048D5
:108D50000068002803D028461D49096888472EE08E
:108D6000032000F06FF80546002D07D01848006872
:108D7000002803D028461649096888471FE00320C9
:108D800015490870042000F05DF80546002D07D055
:108D90000F480068002803D028460D490968884715
:108DA0000DE000200C4908700C480068002804D031
:108DB0000846007809490968884700E000BF00BFFD
:108DC00000E000BF00BF70BD42200020392000201D
:108DD00034200020382000202C20002030200020CB
:108DE00070B504460025022C02D0032C18D100E0F7
:108DF00000BF0D480078002811D000200A490870F3
:108E00000A48007800F01EF80546002D07D00848F3
:108E10000068002803D0284605490968884700E013
:108E200000BF00BF70BD00002420002038200020BB
:108E30003420002010B507210148FFF7BAF910BD12
:108E40002520002030B587B00546A24805700020D7
:108E50000090684603F00EF90446082C02D1002069
:108E6000009004E0002C02D0204607B030BD0098EE
:108E7000002804D00120984908700020F5E7FFF78A
:108E8000D9FF96484078002803D0924800780128FE
:108E900007D092488078002812D08E4800780228A7
:108EA0000ED18F480068002807D001208D49087036
:108EB00008208B490968884702E00020894908702A
:108EC0008448007801280BD184484078002804D0D9
:108ED000854803F061F8002802D102207D4908701E
:108EE0007C48007802280BD17C488078002804D088
:108EF0007D4803F051F8002802D10320754908701D
:108F00007648007B002806D172480078032802D1F9
:108F10000420704908707148007E002808D16D480F
:108F20000078042804D100206A4908706F4908704D
:108F30006B480068002817D066480078032803D0E3
:108F40006448007804280FD16448007800280BD0CA
:108F500067480078002807D101206649087007207B
:108F60005F490968884702E00020624908701821BB
:108F700001A8FFF71EF90021684601710020029048
:108F8000684601730020049052480078012806D0FA
:108F9000022811D0032823D0042879D150E0524868
:108FA000401E02900121684601710021C182818228
:108FB00001204E49087075E04B48401E0290012187
:108FC000684601714548008981B26846C1824348BC
:108FD000808881B26846818202204449087061E03D
:108FE0003E48808A81B26846C1823C48008A81B28C
:108FF00068468182404804F0E9F900281CD03748CF
:109000000078002818D03A480078002814D10220AF
:10901000694608733848049004203849C870002114
:109020003648FFF75CFD0446002C01D020461CE7C3
:1090300005202E49087002E003202C49087031E019
:109040002648808B81B2684681822448008C81B298
:109050006846C182284804F0B9F900281DD01F488D
:109060000078002819D022480078002815D1022065
:10907000694608732048049004202049C8700021E4
:109080001E48FFF72CFD0446002C02D02046ECE6DB
:1090900007E006201549087002E004201349087013
:1090A00000E000BF00BF0B480078002806D001A8F0
:1090B00073DF0446002C01D02046D6E6084800683D
:1090C000002804D00948007805490968884700202D
:1090D000CBE6000038200020242000206C23002054
:1090E000302000203B200020262000202C200020C3
:1090F000392000203A200020902300203423002033
:1091000070B505461C2229461448FFF739F800209F
:1091100013490870286800280BD0082211482968D4
:10912000FFF72EF80F487ADF0446002C08D02046BF
:1091300070BD0C487BDF0446002C01D02046F7E7C9
:109140000020C04308490880002008490870084AE8
:1091500000210848FFF7B6FBEAE7000038240020AA
:1091600058200020442000204E2000204C200020C9
:10917000C1D1010000D4010010B504462088102898
:1091800006D0112808D012280ED0502810D107E0A0
:10919000204602F093FE0CE0204602F0ADFE08E00F
:1091A000204602F0CBFE04E0204602F07BFE00E009
:1091B00000BF00BF10BDFEB505460C46174620880F
:1091C0000930B84201D90C20FEBD684671DF064661
:1091D000002E01D03046F7E7082021886854208807
:1091E000401C20801B20218868542088401C20803F
:1091F00021884819062200A90131FEF7C1FF208805
:10920000801D208068460078002802D1218868549B
:1092100002E00120218868542088401C2080002022
:10922000D2E710B50446204600F032FF2046FFF793
:10923000A3FF204600F0A0F8204602F0F3FD2046F0
:10924000FFF74CFD10BD00007CB500BF0023482295
:109250002349082003F08EFB054600BF2E46002E52
:1092600006D000BF002211463046FFF7D7FA00BFF4
:1092700000BF00BF002000900190012069460870E7
:10928000684660DF044600BF2546002D06D000BFBB
:10929000002211462846FFF7C1FA00BF00BF11485F
:1092A00003F05CFB044600BF2546002D06D000BF3E
:1092B000002211462846FFF7B1FA00BF00BF0A4856
:1092C00003F08CFB044600BF2546002D06D000BFEE
:1092D000002211462846FFF7A1FA00BF00BF7CBD5F
:1092E000CC2200202392010051CD010001460C4800
:1092F0000078002809D1072001228240094B9A609A
:1093000000BF0120064A107009E00020044A1070D6
:10931000072001228240034BDA6000BF00BF704784
:1093200008200020000500507CB50446A1786A465C
:109330000D4802F0B7FE0546002D13D161781C22BE
:1093400051430A4A88181C231A46694602F0E6FF70
:109350000748807A800007490A58214668469047A6
:10936000054600BF7CBD00005C2000205425002085
:10937000A025002014D4010070B5054628881028C7
:1093800002D0112832D118E01A48006800280ED106
:1093900000F0FAFB044600BF002C07D01648006816
:1093A000002803D0204614490968884700BF1148A7
:1093B0000068401C0F49086019E00E480068401E14
:1093C0000C4908600846006800280ED1FFF7BFF975
:1093D000044600BF002C07D007480068002803D0CF
:1093E000204605490968884700BF00E000BF00BF6C
:1093F00070BD0000202000201C20002010B503209C
:1094000000F0AAF8044600BF002C03D0062C01D0BF
:10941000204610BD00BF0020FBE70000F3B581B07F
:1094200006460025002400E0641C002C04D1A000A6
:1094300029490858B042F7D1002C42D1029800289F
:1094400025D0012802D002283AD133E0600020184C
:1094500022490D5C600020184018407800280ED08A
:109460001F4800680A22504301461E4A1E480068F1
:10947000FFF7A4FA0746002F01D11A4806706000D2
:1094800020181649401880781849085518E01648E1
:109490000068FFF7BFFA1548005D610061180F4AC8
:1094A00089188978884204D1600020181146401834
:1094B000857805E06000201808494018457800BF0D
:1094C00000BF002D07D00A480068002803D02846B6
:1094D000074909688847FEBDF4D301001420002025
:1094E0000C20002017200020F0D3010018200020BD
:1094F0001020002030B503460020002B24D1012A83
:1095000007D1012903D11C460D34E4B200E0002448
:10951000224600290FD0012902D0022911D104E0EE
:109520005C001C19094D2A550DE05C001C19074D03
:109530006419627007E05C001C19044D6419A27084
:1095400001E0072000BF00E0072030BD142000200C
:10955000014600207047000070B50246002021E05F
:109560008400124D2C59A400114D64192168012466
:1095700084401440002C01D0032400E00024234642
:1095800003252D040C46AC4321461C04214305242D
:10959000240707252D0264198500044E7559AD0076
:1095A0006151401C0028DBD0002070BDF4D30100C5
:1095B000000700500021C9438200054B9950042840
:1095C00004DB0B46011F024A40325354704700002F
:1095D000C425002001468800014A10587047000049
:1095E000C4250020F7B585B00B460020C043049089
:1095F000002A01D0002000E004200390002A01D0BE
:10960000042000E00820029003991EE08800124C1C
:109610002058401C002817D10846059C0093019251
:1096200046B20D4D20352E5585000B4E009B7351D3
:10963000019A002A04D166B2051F074F40377E55B4
:1096400000BF48B2049003E0491C02988142DDD378
:1096500000BF049808B0F0BDC425002001460148B1
:1096600040567047E4250020F0B587B03E480078AA
:10967000142148433C49091D4418E7680C21A0689F
:1096800048433A494018008906900C21A068484395
:1096900036494018408905900C21A0684843334959
:1096A00040184068049002F0EFFD014602903846F1
:1096B000FEF73CFD002901D1012000E000200390CD
:1096C000059906984843049946186088C019A188EE
:1096D00045180020264908600398002804D002F0AD
:1096E000D3FD618888420AD00398002804D0B5428F
:1096F00002D1A088002802D0A06803280CD102F073
:10970000C3FD014602903846FEF710FD1949086076
:10971000032003F00FF924E002F0B6FD0190A188C8
:10972000C8190199FEF702FD88081349086002F084
:10973000ABFD014601902846FEF7F8FC002901D157
:10974000012000E000200290B54206D002980028D7
:1097500003D1B1B2A8B203F015FB022003F0EAF87E
:1097600000BF07B0F0BD00000C260020D826002066
:1097700080200020842000207C20002010B5084894
:109780000078142148430649091D4418207804280C
:1097900002D000F0A5F801E003F068FA10BD000067
:1097A0000C26002010B50F480078142148430D49BD
:1097B000091D441860880C4908602078012804D0ED
:1097C000032805D0042809D105E003F04FFA06E08C
:1097D000FFF74AFF03E003F0E4FC00E000BF00BF36
:1097E00010BD00000C2600209020002010B503487A
:1097F0004078002801D0FFF7D5FF10BD0C260020CF
:109800000023142141430C4A535414214143891825
:109810004B8002231421414389188B6000231421BB
:1098200041438918CB601421414389180B611421ED
:10983000414389188B80704710260020FFB581B006
:10984000064617461C4840780A2830D01A48007847
:109850001949497844180A2C00D30A3C1420604363
:109860001549091D0E541420604340180761142047
:1098700060434118029805C8CA608860142161439A
:109880000D4A121D891804984880142161438918D3
:109890000A988880101F4078401C111F48700748A4
:1098A0000078002801D1FFF77DFF002500E00425A6
:1098B000284605B0F0BD00000C26002078200020CE
:1098C00010B50020054908704870002403E02046C8
:1098D000FFF796FF641C0A2CF9D310BD0C2600205C
:1098E00010B50848007814225043064A121D81180A
:1098F0000020FEF7BDFF00F007F8002003F01AF883
:1099000010BD00000C26002010B509490878FFF7AB
:1099100077FF07484078401E0549487008460078A0
:10992000401CC0B208700A2801D10020087010BD88
:109930000C260020FEB51F480068002836D01D48C0
:109940000068056802F004FF01901B480468214686
:10995000019803F043FAC61C18480078002801D18A
:1099600002F008FFAE4201D2284600E0304604195A
:109970002402240A204602F0E5FE02F0E9FE0090EF
:109980000199009803F02AFAC71C2046019903F0B8
:1099900025FA874209D902F0DBFE074602F0D2FE23
:1099A0002F20FEF797FB03F075FB01E002F000FFAC
:1099B000FEBD0000AC200020B0200020C42000200C
:1099C00001460888062808DB08881922D20190423F
:1099D00005DD0888104A904201D00720704748886A
:1099E000062808DB48881922D201904205DD488804
:1099F000094A904201D00720F0E70888064A9042C1
:109A000008D04888904205D008884A88904201DDF5
:109A10000720E3E70020E1E7FFFF0000FFB581B08A
:109A200006460D4614462088801D0499884202D9B6
:109A30000C2005B0F0BD3046FFF7C2FF0746002FEF
:109A400001D03846F5E70520218868542088401C5D
:109A500020801220218868542088401C2080228881
:109A60005119308803F094FB218840182080228807
:109A70005119708803F08CFB218840182080002049
:109A8000D7E710B5044600BF002211462046FEF776
:109A9000C5FE00BF10BD000030B587B01C21684670
:109AA000FEF787FB002000900520C00301900F20E7
:109AB000000402900321684601730021C1810174F2
:109AC0000A4805900A4806906846FFF719FB0446C5
:109AD00000BF2546002D06D000BF002211462846B3
:109AE000FEF79CFE00BF00BF07B030BD71BE010095
:109AF000839A010038B51F4801F034FB002829D1B2
:109B00001D48007800280AD01C484069002820D051
:109B100000200090194841696846884719E01848B4
:109B20000078002802D11548456801E0134885688F
:109B30000022294613480068FEF740FF0446002C27
:109B400007D00E488069002803D00C488169204660
:109B500088470AE009484069002806D001200090A3
:109B6000064841696846884700BF002002490870DE
:109B700038BD00005020002058200020382400204C
:109B80004C20002000D4010010B50122002108461D
:109B9000FFF7B0FC044600BF002C03D0072C01D017
:109BA000204610BD00BF072202210120FFF7A2FCC2
:109BB000044600BF002C03D0072C01D02046F0E75C
:109BC00000BF042202210020FFF794FC044600BFDE
:109BD000002C03D0072C01D02046E2E700BF002074
:109BE000DFE7000070B503460C460820002115E0B1
:109BF0000C254D430B4EAD19AD7A2540002D0CD0F0
:109C0000094DAB4205D00C254D43AD192D899D4220
:109C100002D11160002003E00520491C0029E7D093
:109C200000BF70BD94250020FFFF000010B5044662
:109C300001210C2060430A4A80188172891E0C2081
:109C4000604380180181FF210C2060438018C1729D
:109C50000C21614388180721FEF7ABFA10BD000004
:109C60009425002010B514484068C105C90D00298D
:109C700020D00A46103A50B200280DDA0E4B1C33A1
:109C80000407240F083CA408A4001B598407E40E11
:109C9000E3401B069B0F0BE0084B032424021B1917
:109CA0008408A4001B598407E40EE3401B069B0FA5
:109CB000D8B210BD0420FCE700ED00E000E100E0B8
:109CC00010B514484068C105C90D002920D00A46C6
:109CD000103A50B200280DDA0E4B1C330407240F43
:109CE000083CA408A4001B598407E40EE3401B06AB
:109CF0009B0F0BE0084B032424021B198408A400CB
:109D00001B598407E40EE3401B069B0FD8B210BD1D
:109D10000420FCE700ED00E000E100E010B51C4885
:109D200000680821084000282FD11A480068401C0C
:109D30001849086018480068002803D0042002F081
:109D4000FDFF24E001F072FA002803D0022002F0A7
:109D5000F5FF1CE011480068002813D00C4800787B
:109D6000C007C00F002809D1094800680121084335
:109D700007490860002002F0E1FF08E0032002F03C
:109D8000DDFF04E002F0AEFF01E002F0BBFF10BD1A
:109D900094200020842000207C20002080200020AF
:109DA00010B50C4800680821084000280FD1094868
:109DB000006802210840002805D0064800680121FB
:109DC000084304490860022002F0B8FF01E002F0F5
:109DD00099FF10BD94200020FEB504460E46A178E0
:109DE0006A46284802F05EF90546002D49D16078A0
:109DF0000C21484324494018807A402108404028DB
:109E000001D0022E01D1214F04E0012E01D1204FBB
:109E100000E0204FA0781C2250431F4A81180023E5
:109E20001C226846B8470546002D1AD1022E18D0CC
:109E300060780C21484314494018807A40218843B7
:109E400061780C225143104A8918887260781C226C
:109E50005043124A81181C231A466846B8470546E3
:109E600000BF022E0DD020780C2148430C49401829
:109E7000807A80000B490A5821466846904705467B
:109E800000BFFEBD5C2000209425002065C60100B7
:109E900039C5010001CC0100902400205425002088
:109EA000A025002004D40100F8B505460E461B4F3E
:109EB00000242EE01C20604319494018807EFF28B2
:109EC00026D13078022814D01C2060434018807EB0
:109ED000022188431C216143114A891888761C217C
:109EE000614389180846103007223146FEF748F9C9
:109EF0000BE01C2060430A494018807E410849005D
:109F00001C206043064A801881762C70002702E0EE
:109F1000641C072CCED300BF3846F8BD4380000038
:109F200090240020F8B505460E46174605200090FF
:109F300000241BE0002D06D11C2060430E49401870
:109F4000008BB8420DD0002D0FD01C2161430A4A6E
:109F500089180846103007222946FEF735F90028EF
:109F600003D134600020009002E0641C072CE1D390
:109F700000BF0098F8BD0000902400207CB5054685
:109F8000A9B26A46084802F08DF80446002C09D1AF
:109F90007421684602F0D8F80446002C02D1284605
:109FA00002F008F820467CBD5C200020F8B506468B
:109FB0000F46144600BF2546002D06D000BF0022E4
:109FC00011462846FEF72AFC00BF00BF0020F8BD5E
:109FD0007FB50546039502F05DF9044600BF2646AD
:109FE000002E06D000BF002211463046FEF716FCB8
:109FF00000BF00BF03A800F075FB044600BF264663
:10A00000002E06D000BF002211463046FEF706FCA7
:10A0100000BF00BF052101A80130FEF7CAF868465D
:10A02000407941084900491C684641714079022144
:10A03000884301466846417140791C2188430146A6
:10A040000C316846417140792021884301466846B9
:10A050004171072181711021C1710B4800900121CC
:10A06000684601716946094800F0E2FC044600BFF9
:10A070002646002E06D000BF002211463046FEF7CD
:10A08000CDFB00BF00BF7FBDAD9F010000200020C1
:10A09000F0B58FB00446FF200D90002600200790F9
:10A0A00000BFFE480078002801D10FB0F0BD00BF0E
:10A0B00000BFFB480068002800D1F6E700BF0CA8ED
:10A0C00000F002FB054600BF2F46002F06D000BF60
:10A0D000002211463846FEF7A1FB00BF00BF00205A
:10A0E00008900025201D0A902A2168468185FF21BD
:10A0F00008A881740021017400200E902088102887
:10A1000013D0A0880EAA0221FFF76CFD0546002D92
:10A110000BD10C210E984843E2494018C17A08A897
:10A1200081740E98C1B208A84174208817287BD08A
:10A1300008DC10280DD011287CD0132876D01428E4
:10A1400075D1B5E0182873D01C2872D05228F7D1E9
:10A1500080E20EAF3A460121D348FFF743FD00905D
:10A160000098002807D102210C2238685043CD4ABC
:10A170008018817201E00420009000980546002DAF
:10A1800051D10126112108A801710E98C1B208A869
:10A190004174A1880C220E985043C24A8018018154
:10A1A00002210C220E985043BE4A801881720C2264
:10A1B0000E995143BB4A88180722A11DFDF7E0FF05
:10A1C000207D304000280AD0207D4008B749085C37
:10A1D000FF280AD0207D4008085C0D9005E0B24AB7
:10A1E0000DA9A01DFFF79EFE0546002D1BD10D9861
:10A1F000C1B20C220E985043AA4A8018C1720C2199
:10A200000E98484311464018807A082108430C22D2
:10A210000E995143A34A8918887208A90D98887429
:10A220000CA8FFF781F824E2FAE003E085E01FE2E2
:10A23000ADE118E20C210E9848439A494018807A03
:10A24000022188430C220E995143964A891888723C
:10A250000C210E98484311464018807A0821084086
:10A2600008280ED10C210E98484311464018807AD8
:10A270008021084080280FD100210CA8FFF7ACFDF9
:10A280000AE008A8807CFF2806D008A9887C01F095
:10A2900091FEFF2008A9887410210C220E985043CB
:10A2A000804A801881720126122008A90871E0E115
:10A2B0000C210E9848437B494018C07AFF2823D1CF
:10A2C000E2890DA90020FFF72DFE0546002D1BD1C8
:10A2D0000D98C1B20C220E985043724A8018C17278
:10A2E0000C210E98484311464018807A08210843F3
:10A2F0000C220E9951436B4A8918887208A90D984F
:10A3000088740CA8FFF710F80C210E984843654993
:10A310004018C07AFF2805D01C210E984843644994
:10A32000401807901C230E995943624BCA18A08805
:10A330000023079982DF05469BE1132008A90871D5
:10A340000C210E98484357494018807A042108434D
:10A350000C220E995143534A8918887201260C2108
:10A360000E98484311464018C07AFF2819D10C2294
:10A370000E9850430A4681180DA8FFF795FD054633
:10A38000002D0BD108A90D9888740D98C1B20C222C
:10A390000E985043434A8018C1721DE0089501266B
:10A3A0001AE0162008A9087124220E995143424A46
:10A3B0008918084608301A21FDF7FBFE0C210E987B
:10A3C000484338494018807A402108430C220E99AE
:10A3D0005143344A89188872002004900C210E9849
:10A3E000484330494018C07A1C214843314941183C
:10A3F0000591002106911C210E9848432C494018D4
:10A400000190002002900390A08801AB244A121D05
:10A4100000217FDF0546002D01D00895002628E1A8
:10A420001F48407A400840001D4948720C210E9890
:10A4300048431C494018807A042188430C220E9915
:10A440005143184A89188872142008A908710126F6
:10A45000A07900280AD00C220E995143114A89187C
:10A46000C87AFFF78BFDA07908908FE0E07940076C
:10A47000C00F00287ED008A8807CFF287AD00C214D
:10A480000E98484307494018807A082108430C2257
:10A490000E995143034A891888720FE06820002002
:10A4A000A025002094250020FFFF00006920002047
:10A4B000542500209024002070250020E07A800799
:10A4C000C00F00280FD008A8807C1C214843774982
:10A4D0004018807E4108490008A8807C1C22504317
:10A4E000724A801881760C210E98484370494018B2
:10A4F000C07AFF284AD00C210E9848436C49085C6A
:10A50000022820D00C230E9A5A430B46D11808AAD1
:10A51000927C1C235A43654BD218104610300722F8
:10A52000FDF72EFE08A8807C1C2148435F49401897
:10A53000807E0221884308A9897C1C2251435B4A02
:10A54000891888761EE01C210E9848435949401806
:10A55000418A08A8807C1C225043544A80180183F9
:10A5600008A8807C1C21484311464018807E410881
:10A57000490000E00AE008A8807C1C2250434B4AB6
:10A580008018817601210CA8FFF726FC71E0A079E4
:10A59000000901283DD1A0790007000F012838D11A
:10A5A0000C210E98484342494018807A08210840FF
:10A5B00008282ED124220E9951433F4A89180818A1
:10A5C0001A21FDF7F6FD162008A908710C210E9836
:10A5D000484337494018807A202108430C220E99BD
:10A5E0005143334A891888720C210E98484311460A
:10A5F0004018807A402108430C220E9951432C4A7E
:10A60000891888722D48407A022108432B494872E4
:10A610001CE00C210E98484325494018807A80217F
:10A6200008430C220E995143214A8918887215203B
:10A6300008A908712148807A8000214A11580CA885
:10A6400088470546002D01D01E480890002008903C
:10A6500001260EE01948807A8000194A11580CA88A
:10A660008847089005E0132008A90871012600E03A
:10A6700000BF00BF002E16D009A90CA8089AFEF74B
:10A68000E9F808A8007912280DD100BF0C210E9816
:10A69000484307494018807A012802D00E98FFF7F6
:10A6A000C5FA00BF00BF00BFFFE4000090240020F7
:10A6B000942500205425002070250020A02500208E
:10A6C00024D40100418000000146002901D1044842
:10A6D0007047FF20087048708870C8700020F7E746
:10A6E0000E8000007FB50646002E02D1374804B028
:10A6F00070BD00240FE000BF00210C206043344AED
:10A7000011500C206043801841720C206043801867
:10A71000817200BF641C002CEDD0002403E02046B1
:10A72000FFF784FA641C002CF9D024212948FDF796
:10A7300040FD002406E0204601F03CFCFF202649B5
:10A740000855641C072CF6D37421684681810721C3
:10A75000C18122480290224902A801F05DFE05460F
:10A76000002D30D101201F4908703078002821D1F8
:10A7700000241CE0A1B26A46194801F093FC05468A
:10A78000002D0FD11C216143174A881800231C2279
:10A79000694601F0C3FD0546002D07D00020114990
:10A7A000087006E000200F49087002E0641C072CC6
:10A7B000E0D308E06A469089D289504381B20848C4
:10A7C00001F0C2FC0546284691E700000E8000001B
:10A7D000A02500207025002069200020EDA70100A1
:10A7E0005C2000206820002090240020FFB591B05C
:10A7F0001D4600BF84480068002801D115B0F0BD97
:10A8000000BF1A98742800D9F8E7012007900DA816
:10A81000FFF75AFF064600BF3746002F06D000BF9D
:10A82000002211463846FDF7F9FF00BF00BF0021A6
:10A8300008A8017501760C951A980B90002712E074
:10A84000B9B208AA714801F02DFC0646002E09D1C4
:10A85000082208A91198FDF7B7FC002802D108A921
:10A860008F7502E07F1C072FEAD300BF08A8807D08
:10A87000FF2877D0129803280AD11A98742803D198
:10A88000202008A9087698E0402008A9087694E0DE
:10A890005F49681A1C21FDF749FC0446072C1DD2AC
:10A8A0000AA80F901398002810D108A9887D0121CB
:10A8B0008140584A12681140002901D0012100E06E
:10A8C0000021002902D10020079076E008A9887DA8
:10A8D00002F06CFC202008A908766EE04E49681A48
:10A8E0001C21FDF723FC0446002C1AD10AA80F9066
:10A8F000202108A80176447500200490474905915D
:10A900001C20604344494018019008A8807D1C2108
:10A9100048433F494018029001A80C9018200B9022
:10A920004BE03F49681A2421FDF700FC0446002C47
:10A9300019D1302108A8017644750121C1750C2078
:10A94000604338494018807A02210840022834D0F8
:10A9500008A9497D24225143314A88182421FDF752
:10A9600028FC2AE04DE000200790402008A9087646
:10A970002D48854204D103201290012007901CE04D
:10A9800008A8807D800029490858A84215D10120D7
:10A9900007900AA80F9000200CE008A98A7D0C21DE
:10A9A0004143204BC918C97A8A4202D108AA50757E
:10A9B00002E0401C0028F0D000BF0798012820D1F9
:10A9C0001298032806D108A9087E0321084308A984
:10A9D00008760FE01298022806D108A9087E012106
:10A9E000084308A9087605E008A9087E0221084363
:10A9F00008A908760AA80F900EA90DA8139AFDF7CA
:10AA000029FF00BFFAE60000A02500205C200020FE
:10AA1000902400206420002054250020AC25002034
:10AA2000702500209425002034D4010074240020D7
:10AA300070B505460C4600BF29480078002801D1B2
:10AA4000284870BD00BF002D02D12648801DF8E7C0
:10AA5000002C02D12348801DF3E72068002802D192
:10AA60002048801DEDE720480068002834D11E49A9
:10AA7000206808600522611D1B48001DFDF780FB52
:10AA80002079194988720846007A40084000087207
:10AA90000846007A02218843801C13490872084640
:10AAA000007A04218843104908720846C07940089A
:10AAB0004000401CC8710846C07902218843801CB0
:10AAC0000949C8710846C079042188430649C871FC
:10AAD00000202870002601E0024E361F3046B0E705
:10AAE0006820002008800000A025002001461448AE
:10AAF0000078144A127890421DD011480078401C0A
:10AB00000F4A107010460078022801D10020107002
:10AB10000B48007880000C4A105808600B4A0868FF
:10AB200012688018094A1060104600680002000A86
:10AB30001060012070470020086000BFFAE70000A5
:10AB4000BC200020BD200020B4200020B020002028
:10AB500010B50D48006808210840002810D10B48A6
:10AB60000068401C0949086000F060FB002802D121
:10AB7000FEF704FE06E00648007801F0DBFE01E087
:10AB800000F070FD10BD0000942000208420002003
:10AB900078200020F0B50346002420E0134E3068F2
:10ABA00006689E4203D90668F61A06601BE006682E
:10ABB0009B1B06683419002606600C4E35680B4F47
:10ABC000C6693E60C668002E08D00E193602360AE5
:10ABD0004660C66886601668C661156000BF034897
:10ABE00000680028DAD100BFF0BD0000AC200020D2
:10ABF00030B504461088C01C984201D90C2030BDE5
:10AC00000220158848551088401C108001201588A6
:10AC100048551088401C108015884C551088401CE1
:10AC200010800020EBE7000010B50446002C02D095
:10AC3000112C08D100E00AE006480068082108430A
:10AC40000449086003E02046FDF72AFE00BF00BF6C
:10AC500010BD00009420002010B50C480068401C76
:10AC60000A49086003280DD009480078022804D05A
:10AC70000748007801F05EFE07E00648007802F021
:10AC80005DF802E00D20FDF70BFE10BD88200020CE
:10AC9000782000207920002010B50A48007801288B
:10ACA00004D0022808D0032809D102E001F0E4FF13
:10ACB00006E0FFF74DFF03E002F034F800E000BFCC
:10ACC00000BF10BD7820002070B50446204628DF64
:10ACD0000546FFF7A9FF70BDF8B504460D461646B8
:10ACE00032462946204629DF0746FFF79DFFF8BD7B
:10ACF0003EB500BF6846007801090901491C009172
:10AD000068460078F02188431030009000BF092287
:10AD100016A168467CDF044600BF2546002D06D0FC
:10AD200000BF002211462846FDF778FD00BF00BF96
:10AD3000002001900290502168468180A021C180AE
:10AD400000210181FF219131418101A87ADF044670
:10AD500000BF2546002D06D000BF00221146284620
:10AD6000FDF75CFD00BF00BF3EBD0000657269637A
:10AD70005F64656D6F000000014600207047024669
:10AD8000002070470246002070470000F8B50546D5
:10AD9000002700200090002668782421484333498A
:10ADA00040184068002827D068780C214843304973
:10ADB0004018807A8021084080281DD168780C21B5
:10ADC00048432B494018807A40210840402813D03E
:10ADD0006878242148432549401807460837687891
:10ADE0002421484321494018808880B20090687827
:10ADF000242148431D490E5869780C2251431C4AAE
:10AE00008918088933463946009AA9DF04460B2C75
:10AE10000BD1012669780C225143154A89180889FB
:10AE200033463946009AA9DF0446002C00D0114C65
:10AE3000012E18D169780C2251430D4A89180889CE
:10AE40000D4A0C21A7DF0446002C0CD00B4884428D
:10AE500008D0082C06D0801C844203D0112C01D0CD
:10AE6000002400E0034C2046F8BD000070250020BF
:10AE70009425002041800000FFFF00000230000008
:10AE800070B505460C466178242251430D4A881856
:10AE900038232422294601F041FA0646002E0FD11C
:10AEA000607824214843074940184068401C002826
:10AEB00006D10021607824225043024A8018416064
:10AEC000304670BD70250020F3B589B00C460327CD
:10AED0001A20089061780C2251432E4A891808895B
:10AEE0003B4608AA01A9AADF0646002E4FD1617889
:10AEF00024225143284A89180846083069460A8C9A
:10AF000001A9FDF761F9002812D160780C214843AE
:10AF100020494018807A02210840022837D0617801
:10AF2000242251431C4A88182421FDF742F92EE0BF
:10AF3000607824214843184940184068002801D00F
:10AF4000164D00E0164D60782421484312490F50F9
:10AF50006946098C6078242250430F4A801841606A
:10AF60006178242251430C4A891808460830694602
:10AF70000A8C01A9FDF704F9607824225043064A9F
:10AF80008118382324220998A847064600BF0020CC
:10AF90000BB0F0BD942500207025002065C601008F
:10AFA00039C5010070B505462846FFF7EFFE044697
:10AFB000002C02D100BF00BF0446204670BD70B512
:10AFC00005460E4631462846FFF75AFF0446002C38
:10AFD00002D100BF00BF0446204670BD70B50546D3
:10AFE0000E4631462846FFF76FFF0446002C02D17B
:10AFF00000BF00BF0446204670BD000010B51848D1
:10B00000006808210840002826D100F049F90028EE
:10B010000CD0002013490860114800680121084342
:10B020000F490860002001F089FE17E000F0FEF8EB
:10B03000002806D000200B490860022001F07EFEA7
:10B040000CE009480068002803D0032001F076FED8
:10B0500004E001F047FE01E001F054FE10BD0000E5
:10B06000942000207C200020802000200246002028
:10B0700070470000F8B529480078002800D1F8BDD5
:10B0800027480068002801D1012000E00020054683
:10B0900024480068002801D1012000E00020064675
:10B0A00000BF002D14D1684651DF0446052C01D1A4
:10B0B00001250CE0002C06D000BF002211462046DE
:10B0C000FDF7ACFB03E0164900980968884700BF0C
:10B0D000002E1AD114480088009069461348006871
:10B0E00061DF0446052C01D101260DE0002C06D0BD
:10B0F00000BF002211462046FDF790FB04E00B48FC
:10B10000006808490968884700BF002D02D0002E5A
:10B1100000D000E0C5E700BF00BFB0E7CC200020B2
:10B12000DC200020D8200020D4200020D0200020C7
:10B1300010B50446204600F0DFFD044909680840C8
:10B14000002801D0012010BD0020FCE79C20002039
:10B1500070B50446204600F0CFFD0546FDF7B6FC6D
:10B1600070BD000001464888064A1288904206DBFE
:10B170004888044A5288904201DC01207047002030
:10B18000FCE70000442000200C48008CC0B20128DD
:10B1900012D10A48808C0007000F00280CD1074804
:10B1A000806AF0210840402806D10448C06A08405F
:10B1B000002801D1012070470020FCE7C00F00F0FB
:10B1C0001948008CC0B201282CD11748808C000788
:10B1D000000F002826D11448806AF021084000287A
:10B1E00006D11148C06A0840002801D101207047EB
:10B1F0000D48806AF0210840102806D10A48C06A2C
:10B200000840002801D10120F1E70748806AF021B9
:10B210000840302806D10448C06A0840002801D1FF
:10B220000120E4E70020E2E7C00F00F0F8B5124883
:10B230000078142148431049091D4518EF6801F0B2
:10B2400023F800906988C919AA888918481E0099AE
:10B25000FCF76CFF064609480068B04207D3074870
:10B260000068B04205D106480068002801D10124D9
:10B2700000E000242046F8BD0C2600208420002099
:10B280008020002010B50446204600F035FD8004E3
:10B29000800C002801D0012010BD0020FCE7000038
:10B2A000F8B510480078142148430E49091D451887
:10B2B000EE6800F0E9FF009069888919AA8889186A
:10B2C000481E0099FCF732FF07460748006800282F
:10B2D00005D006480068B84201D1012400E00024EE
:10B2E0002046F8BD0C26002080200020842000206D
:10B2F00001468807800F002801D1012070470020F7
:10B30000FCE730B504461088C01C984201D90C20D7
:10B3100030BD0220158848551088401C10801C2024
:10B32000158848551088401C1080012C06D0022C2E
:10B3300008D0032C0AD0042C10D10BE00020158873
:10B3400048550DE001201588485509E00220158870
:10B35000485505E003201588485501E00720D7E748
:10B3600000BF1088401C10800020D1E7F8B52148AC
:10B3700000680090204806782EE0F0001F49096818
:10B380004418257824E01820684361680F18681C69
:10B39000C5B2A078A84200D100253878022802D092
:10B3A000032812D103E0786801F0A6FD0EE007E063
:10B3B00010490868002101740E4AC169116000BF7C
:10B3C0000C4800680028F3D100E000BF00BF00BFB8
:10B3D0006078A842D7D100BF3046711ECEB2002897
:10B3E000CBD1044801680098814201D00120F8BD0A
:10B3F0000020FCE7AC200020A4200020A820002092
:10B40000FEB506463C48006801903C480078009034
:10B4100063E00098C0003A490968451856E0002EDC
:10B4200002D03446E66924E02978182359436A6833
:10B4300050182978491C29702978AA78914201D19D
:10B440000021297044680178012902D1217C00295A
:10B4500000D03BE081686160C168A1600169E16082
:10B460004169A16127490978002901D00021616063
:10B4700000BF254960680968401A0002000A234994
:10B48000884208D220496068096801F0A7FCA168D9
:10B49000401820600FE01C486168006801F09EFCC5
:10B4A0000746A068B84203D9A068C01B206001E02D
:10B4B0000020206000BF00206060A0600120207498
:10B4C0000020E061204601F0E1FC00BF002EA6D183
:10B4D000287869788842A2D100BF0098411EC9B27D
:10B4E0000091002895D1044801680198814201D05B
:10B4F0000120FEBD0020FCE7AC200020A42000209D
:10B50000A8200020C5200020B0200020FFFF7F00E1
:10B510001FB55248006801905048001D0068009017
:10B5200000F0EEFB044600BF2546002D06D000BF0C
:10B53000002211462846FDF771F900BF00BF00F058
:10B540004FFA044600BF2546002D06D000BF00225A
:10B5500011462846FDF762F900BF00BF01A905208A
:10B5600000F066FA044602A800F010FB044600BF93
:10B570002546002D06D000BF002211462846FDF7C3
:10B580004DF900BF00BF052000F0CCFA07460320AC
:10B5900069464870324A012000F0A8F9044600BF0D
:10B5A0002546002D06D000BF002211462846FDF793
:10B5B00035F900BF00BF012000F026F906463A46E3
:10B5C00031466846007A00F04BFB044600BF254632
:10B5D000002D06D000BF002211462846FDF71EF9B7
:10B5E00000BF00BF6846007A00F066FB044600BF5B
:10B5F0002546002D06D000BF002211462846FDF743
:10B600000DF900BF00BF052000F09AFA00210120CB
:10B6100000F008F901F044FDFDF716FE0398FEF76F
:10B62000D7FCFFF765FBFDF7BFF801F053F9FEF714
:10B6300033FAFDF733FA0320FDF704FC044600BF9C
:10B640002546002D06D000BF002211462846FDF7F2
:10B65000E5F800BF00BF00BFFEE70000E8D301002F
:10B660006DB0010010B50548006808218843034902
:10B6700008600348007801F05DF910BD94200020B7
:10B6800078200020FFB581B005460E461446A888F4
:10B69000871C2088801CC1190498814202D90C2083
:10B6A00005B0F0BDFE2F01D90C20F9E7781C2188E8
:10B6B00070542088401C2080FF20218870542088EE
:10B6C000401C208022889119288801F061FD218882
:10B6D00040182080A88800280EDDA868002801D125
:10B6E0000720DDE7AA8823889819A968FCF748FD98
:10B6F0002088A988401820800020D1E7FFB583B0BA
:10B7000005460F4614462878012805D16878002898
:10B7100002D1072007B0F0BD2088801C069988421E
:10B7200009D82878012808D12088801C6978411818
:10B730000698814201D90C20ECE721880698401A2E
:10B74000801E86B201962188891CC81901A97DDF57
:10B7500002900298002801D00298DBE7287802289E
:10B7600006D168468088B04202DC092000900BE0D8
:10B77000082000902878012805D16878B04202DCC2
:10B780006878019000E0019668468088FE2801D91B
:10B790000C20BFE768468088401C218878542088A8
:10B7A000401C20802188009878542088401C2080EC
:10B7B000218868468088081820800020AAE7014672
:10B7C0000020704702460020704702460020704764
:10B7D00070B504460D4629462046FCF7F9FD00BF2A
:10B7E000E106C90E012088400549086000BF00BF7E
:10B7F000E106C90E012088400249086000BF70BD03
:10B8000080E200E000E100E070B504462046FDF76C
:10B8100025FF8000FF30013085B2284600F0C4FAD1
:10B8200070BD0000FEB505460E46284600F0FEFB42
:10B83000002820D02846FDF711FF001F28490F5C83
:10B84000BC11032C0CD100BF264800690121A9407E
:10B850000840002801D0032000E00220019005E00C
:10B86000012C01D1022000E003200190284601991B
:10B8700000F067FA32E0284600F0E4FB00282DD003
:10B880002846FDF7EBFE0446A000FF30013080B2F1
:10B8900001902046144951221201891882008958CA
:10B8A00001221143104A51231B01D2188300D150A9
:10B8B00000BF019800F07EFA002E0ED02846FDF75A
:10B8C000CDFE0090FDF786FE0746002F04D0012133
:10B8D000A140084600F082FA00BF00BFFEBD000094
:10B8E000042600200005005000600040F7B584B039
:10B8F00004460E4600200390204600F089FB0028F5
:10B9000002D00820039060E0F27820460699FDF707
:10B9100069FE0546681C002854D0B078002810D075
:10B9200000BFA1002A4A89180968022291430846EB
:10B9300005210907072212028918A200885000BFBA
:10B940000BE07778002000903B46024601460190CC
:10B95000204600F0E3F900BF00BFF078002826D0B1
:10B9600037781C48512109014018A90040581A494C
:10B9700008401849512212018918AA008850154818
:10B98000512109014018A900415820021F2212022A
:10B9900010403A0403231B041A40104301430D488E
:10B9A000512212018018AA00815000BF0CE0281F0C
:10B9B0000A49085C31788901084342B2281F0749C7
:10B9C0000A5401E00420039000BF039807B0F0BDC3
:10B9D0000007005000600040FFE0FCFF042600204C
:10B9E00010B512480079002801D0082010BD0024AD
:10B9F00004E0204600F036FB601CC4B2202CF8DBCB
:10BA0000002404E02046FDF7D5FD601CC4B2082CDC
:10BA1000F8DB03210620FFF7DBFE0120C00700F062
:10BA2000DDF90121014801710020DFE70426002033
:10BA3000FEB504460E4600200290204636490956BF
:10BA4000491C002901D0012100E00021002902D079
:10BA5000082002905DE0B07800283AD00122002151
:10BA60002046FDF7BFFD0546681C00282ED037781C
:10BA7000727801922948512109014018A9004058C3
:10BA8000274908402549512212018918AA008850E7
:10BA90002248512109014018A900415820021F22C3
:10BAA000120210403A0403231B041A401043019A67
:10BAB000120501231B051A40104301431748512268
:10BAC00012018018AA00815000BF01E004200290FA
:10BAD00006E000BF0121C9430F48015500BF00BF68
:10BAE0000298002815D17078012803D1204600F073
:10BAF00053F902E0204600F047F900BF0020009013
:10BB00000346012211460190204600F007F900BFCC
:10BB100000BF0298FEBD0000E42500200060004048
:10BB2000FFE0ECFF70B505462846FDF797FD80065F
:10BB3000040E204601494118084670BD00600040CF
:10BB400030B501460E4A505683000E4C1B191B6936
:10BB5000032423431A461F231B0213430A4C512577
:10BB60002D0164198500635100BF00BF00BF064B63
:10BB7000512424011B1984001A5100BF30BD00005C
:10BB8000E42500200065004000600040F1B584B06D
:10BB9000002504200390304D002457E0002002903F
:10BBA000FEF760F801900198012813D002A836DF53
:10BBB0000646022E01D172B60BE000BF3746002FB9
:10BBC00006D000BF002211463846FCF727FE00BF12
:10BBD00000BF00BF204600F08FF82840002812D098
:10BBE0002046FFF7A5FA00280DD100BF204600F03F
:10BBF00083F81A49096808431849086000BF049887
:10BC00000470002003900198012813D062B66846A2
:10BC1000007A37DF0646022E0BD000BF3746002FD2
:10BC200006D000BF002211463846FCF7F7FD00BFE2
:10BC300000BF00BF0398002800D109E0204600F0B3
:10BC40005BF8294681430D46601CC4B2002DA5D186
:10BC500000BF039805B0F0BDFF3F00009C2000200E
:10BC600070B506460C461546002C01D0002D01D1BA
:10BC70000E2070BD3046FFF705FB002801D10720DC
:10BC8000F7E73046FFF754FA002801D10820F0E723
:10BC900000BF0848512109014018F10044500548EF
:10BCA000512109014018F1004018456000BF0020F3
:10BCB000DFE7000000F0014010B504462046FFF722
:10BCC00047FA002801D1072010BD2046FFF7DAFA15
:10BCD000002806D02046FFF72BFA002801D10820C3
:10BCE000F2E700BF0120A0400249486000BF0020E9
:10BCF000EAE7000000F50140014601208840704756
:10BD000005490978002904D10121034A1170002056
:10BD100000E085207047000098200020F0B5059CC9
:10BD200055000D439E00354326023543069E3604DA
:10BD300035430526360707273F02F6198700F551D8
:10BD4000F0BD10B50522120707231B02D21883008D
:10BD5000D25803231B049A4305231B0707242402FC
:10BD60001B1984001A510522120707231B02D2183F
:10BD70008300D2580B041A4305231B07072424020F
:10BD80001B1984001A5110BD01218140014AD16064
:10BD9000704700000005005001218140014A916078
:10BDA0007047000000050050014601480818704720
:10BDB0000060004010B504462046FFF7F5FF002163
:10BDC000016010BD10B504462046FFF7EDFF006886
:10BDD000012800D110BD0020FCE7000001494860A7
:10BDE000704700000063004070B50546002D12D07A
:10BDF000032D13D10220FDF7ABFB044600BF2646FE
:10BE0000002E06D000BF002211463046FCF706FD8A
:10BE100000BF00BF03E000F05EFD00E000BF00BF18
:10BE200070BD000070B505462888102802D0112882
:10BE300019D113E00720FDF78BFB044600BF26460F
:10BE4000002E06D000BF002211463046FCF7E6FC6B
:10BE500000BF00BFA8880549088005E00020C04356
:10BE60000249088000E000BF00BF70BD0220002032
:10BE700070B505462878002810D13B210848008875
:10BE800076DF044600BF2646002E06D000BF002203
:10BE900011463046FCF7C2FC00BF00BF70BD000079
:10BEA0000220002010B504460822A11D0248FCF71C
:10BEB00067F9FDF71FFE10BD5020002010B50446A5
:10BEC000A088094908800822214616310748FCF756
:10BED00057F90020064908700648C089002801D19A
:10BEE000FDF708FE10BD00004E200020502000206D
:10BEF0004C2000203824002070B505460020C043A7
:10BF00000A49088000200A4908700A480068FCF7BE
:10BF100081FD0446002C07D007488069002803D023
:10BF2000054881692046884770BD00004E200020EA
:10BF30004C20002000D401003824002070B50546B4
:10BF4000AC1D20881249C989884220D1208B022843
:10BF50001DD100BF00BFA17EE27E12021143084640
:10BF6000C107C90F002902D0FDF7C4FD0FE0094841
:10BF70000068FCF74FFD0646002E07D00448806994
:10BF8000002803D0024881693046884700BF70BD51
:10BF90003824002000D401000246002105E0505C56
:10BFA000002801D001207047491C0629F7D3002042
:10BFB000F9E7000010B504461C216143124A8918B4
:10BFC000084611300621FCF7F4F81C2161430E4AA3
:10BFD00088181021FCF7EDF8FF211C2060430A4A65
:10BFE000801801741C206043801881760021C943A9
:10BFF0001C20604380180183204601F0D7F8002000
:10C00000A100024A505010BD90240020742400204A
:10C01000014605484056C017401C002801D00120A9
:10C0200070470020FCE70000E4250020014604489A
:10C030004056042801DB012070470020FCE7000087
:10C04000E4250020014606484056002805DB044848
:10C050004056042801DA012070470020FCE7000068
:10C06000E42500200022D24301490A547047000011
:10C07000E4250020014600BF084800680422104063
:10C08000002801D10820704700BF002901D10E20EF
:10C09000F9E70348407808600020F4E79420002086
:10C0A0000C2600203CB5034600BF25480068042448
:10C0B0002040002801D108203CBD00BF002B01D149
:10C0C0000E20F9E7002A01D10E20F5E718680228B2
:10C0D00006D20C24186860431A4C2058002801D15D
:10C0E0000720E9E75C68186801940090019C0C2522
:10C0F00018686843134D401900894843201801907F
:10C100000C24009860432C46001940890C25009CA3
:10C110006C430C4D6419248960430C25009C6C43CE
:10C12000084D641964680019019CA04201D80720D9
:10C13000C2E7019C0098546010600020BCE700003A
:10C1400094200020D8260020FEB504460D4600BFEE
:10C150004148006804210840002801D10820FEBDA4
:10C1600000BF002C01D10E20F9E72068022806D27A
:10C170000C212068484339490858002801D107207C
:10C18000EDE70C21206848433449401840890C22CF
:10C1900021685143314A8918098948430C22216892
:10C1A00051432E4A8918496840186168884201D86D
:10C1B0000720D4E76068FFF79BF8002801D1102022
:10C1C000CDE70C2320685843244BC01862684068B0
:10C1D000101A00900C22206850431A4680180189DA
:10C1E0000098FBF7A3FF002901D00720B7E70C2236
:10C1F00020685043194A801801892846FBF7ACFF94
:10C20000002901D1002D01D10720A8E70C212068C9
:10C2100048431249401806890C22216851430F4AAD
:10C22000891849894E43606847190C2120684843A2
:10C23000114640184068801901900198874201D941
:10C2400007208CE700202B46024621460090032061
:10C25000FDF7F4FA83E7000094200020D8260020A0
:10C2600070B508484469601C002807D000F00CF83D
:10C27000054629462046FBF759FF70BD01200007FF
:10C280004069FAE70010001001200007006980B241
:10C290007047000010B5FDF713FB00201749088018
:10C2A000FFF7DEFFC41EFFF7EFFF444314480460AE
:10C2B00000201449086000BF0DE000220C2141431A
:10C2C000114B5A500C214143C9180A810C2141439A
:10C2D000C9184A81401C0228EFD300200B4908707E
:10C2E0000B4908600B4908600B4908600948006861
:10C2F0000421084307490860002010BD7020002079
:10C300007420002084200020D826002078200020DF
:10C3100088200020942000208C200020FFB581B0D0
:10C320000C4615461E4600BF3948006804210840E7
:10C33000002802D1082005B0F0BD00BF002C01D1BB
:10C340000E20F8E70198002801D10E20F3E72068BD
:10C35000022806D20C21206848432E49085800289C
:10C3600001D10720E7E70C212068484329494018FC
:10C3700040890C2221685143264A8918098948437B
:10C380000C2221685143234A891849684018616882
:10C39000884201D80720CEE7002D07D00C21206865
:10C3A00048431C4940180089A84201DA0720C2E727
:10C3B000A9190C2220685043164A8018008981422E
:10C3C00001DD0720B7E70198FEF792FF002809D0AA
:10C3D0003046FEF78DFF002804D06068FEF788FF26
:10C3E000002801D11020A6E7606881192A4601982B
:10C3F000FBF7C6FE00950C212068484305490F58FD
:10C40000002202212046019BB847002093E700004C
:10C4100094200020D8260020F8B504460D4600BF21
:10C420004148006804210840002801D10820F8BDD7
:10C4300000BF002C01D10E20F9E7002D01D10E2004
:10C44000F5E72068002801D10E20F0E7FFF71CFF78
:10C45000A188884202DBA088102801DA0720E6E7DD
:10C46000E08800280DD0FFF7FBFE471EFFF70CFF0A
:10C470004743E088A18848432C490968401887420F
:10C4800001D20720D3E720798007800F002801D050
:10C490000720CCE726480088022801D10420C6E7FF
:10C4A0002348008828602148006868602048008888
:10C4B0000C2250431F4A8018696841601C4800885C
:10C4C0000C2250431B4A21681150A188184800884B
:10C4D0000C225043174A80180181E18814480088D3
:10C4E0000C225043134A80184181FFF7CDFE009083
:10C4F000FFF7CAFEA188E28851434018471E38461C
:10C500000099FBF729FE0646FFF7BEFE7043074978
:10C51000096840180549086005480088401C04491E
:10C520000880002083E70000942000207420002071
:10C5300070200020D8260020F8B504460E46154687
:10C540001F4600BF3248006804210840002801D17E
:10C550000820F8BD00BF002E01D10E20F9E7002C05
:10C5600001D10E20F5E72068022806D20C212068B0
:10C57000484328490858002801D10720E9E70C2141
:10C58000206848432349401840890C2221685143C0
:10C59000204A8918098948430C22216851431D4AC1
:10C5A0008918496840186168884201D80720D0E797
:10C5B000002D07D00C2120684843164940180089F7
:10C5C000A84201DA0720C4E7E9190C222068504389
:10C5D000104A80180089814201DD0720B9E7304602
:10C5E000FEF786FE002809D03846FEF781FE0028B7
:10C5F00004D06068FEF77CFE002801D11020A8E777
:10C600002B463246214601200097FDF717F9A0E797
:10C6100094200020D826002010B504460F4800784A
:10C62000002819D00D480078042815D0022C02D01B
:10C63000032C0FD102E0FEF72FFB0CE00848006846
:10C6400008210840002802D1FEF706FB01E0FEF7B2
:10C6500023FB00E000BF00BF10BD000078200020D9
:10C6600094200020F8B504460E4615461F4600BF2C
:10C670003248006804210840002801D10820F8BD94
:10C6800000BF002E01D10E20F9E7002C01D10E20B1
:10C69000F5E72068022806D20C2120684843284983
:10C6A0000858002801D10720E9E70C2120684843F9
:10C6B0002349401840890C2221685143204A891897
:10C6C000098948430C22216851431D4A8918496849
:10C6D00040186168884201D80720D0E7002D07D0B4
:10C6E0000C2120684843164940180089A84201DA05
:10C6F0000720C4E7E9190C2220685043104A80182B
:10C700000089814201DD0720B9E73046FEF7F0FDE0
:10C71000002809D03846FEF7EBFD002804D06068F9
:10C72000FEF7E6FD002801D11020A8E72B4632468F
:10C73000214604200097FDF781F8A0E7942000200F
:10C74000D8260020014908607047000040150140CC
:10C7500001484068704700000015014010B50446CC
:10C760000348846003211120FBF76EFE10BD00001A
:10C770000015014010B5012000040A49486009492C
:10C78000403948601120FBF705FE1120FBF70CFE35
:10C790000120054908602F20FBF79CFC012003497C
:10C7A000087010BD4013014000100140C42000205B
:10C7B00010B51120012181400E4A116000BF0120F7
:10C7C00000040D4988600C494039886001200B49FC
:10C7D00048602F20FBF77EFC01200849886000207C
:10C7E000074908602F20FBF775FC002005490870F9
:10C7F00010BD000080E100E0401301400010014046
:10C80000B0200020C420002030B504461088C01C91
:10C81000984201D90C2030BD022015884855108857
:10C82000401C10801120158848551088401C10802D
:10C8300010880C541088401C10800020EBE7FEB5D7
:10C8400007460E461446B86A002801D10720FEBDEF
:10C850000020019037E0B96A0C22019850430D186E
:10C86000A888801C00900098FE2801D90C20EEE7D3
:10C870000098401C218870542088401C208016207D
:10C88000218870542088401C208022889119288893
:10C8900000F07EFC218840182080A88800280EDD4A
:10C8A000A868002801D10720D1E7AA882388981911
:10C8B000A968FBF765FC2088A988401820800198AA
:10C8C000401CC0B201902C20C15D01988142C2DCA5
:10C8D0000020BCE7704770B50020FCF739FE044625
:10C8E00000BF2546002D06D000BF00221146284675
:10C8F000FBF794FF00BF00BFFCF780FD044600BFBC
:10C900002546002D06D000BF002211462846FBF721
:10C9100085FF00BF00BF3CDF044600BF2546002D59
:10C9200006D000BF002211462846FBF777FF00BF64
:10C9300000BF70BD10B504460248047000F0B6F8A0
:10C9400010BD00007820002070B506460C46154644
:10C9500029462046C046C04670BD00000146002959
:10C9600001D10E207047024801600020FAE7000064
:10C97000D8200020FFB581B00C4616461F46002C7B
:10C9800002D1072005B0F0BD20468107890F00299C
:10C9900001D1012100E00021002901D10720F1E7A8
:10C9A0000948046009480680094807600949019858
:10C9B00010DF0546002D01D02846E3E70120064997
:10C9C000087016202EDFDDE7D0200020D4200020C4
:10C9D000C820002049C90100CC20002001460029C0
:10C9E00001D10E207047024801600020FAE70000E4
:10C9F000DC2000200146C878002801D007207047BD
:10CA00000020FCE710B502480068FEF75DF910BD94
:10CA100084200020F8B521480068400840001F49E4
:10CA200008601F480078142148431D49091D441817
:10CA3000E568FFF729FC014600902846FBF776FBE6
:10CA4000064618480660FFF71FFC009061884919E8
:10CA5000481E0099FBF76AFB0746BE4206D10F4805
:10CA60000068022108430D49086005E00B48006892
:10CA700002218843094908600B480068002809D151
:10CA80000648006802210840002803D1022000F077
:10CA900055F902E0002000F051F9F8BD9420002083
:10CAA0000C260020842000207C20002010B50D489A
:10CAB0000078002806D0012807D0022808D00328D3
:10CAC0000CD108E000F018F809E000F067F806E083
:10CAD000FFF7A0FF03E0FFF795FF00E000BF00BFF6
:10CAE00010BD00007820002010B502480068FEF755
:10CAF000EBF810BD8420002010B500200349086029
:10CB000003490860FCF772FE10BD00008820002079
:10CB10008C20002070B5FFF7A3FB461EFFF7B4FB87
:10CB200046433446FFF7B0FB05490968491E4843B0
:10CB300005460448214602682846FEF7CDF870BD38
:10CB4000842000207C200020F8B5124800781421B1
:10CB500048431049091D4418E568FFF795FB064650
:10CB600061884919A28888183146FBF7DFFA0091DD
:10CB7000FFF776FB471EFFF787FB474300983E18F9
:10CB800061884919A288881803490A683146FEF766
:10CB9000A3F8F8BD0C2600208020002010B500F07E
:10CBA00033F810BDF8B5FFF76FFB0646FFF758FBEB
:10CBB000471EFFF769FB47433D4631462846FBF7D2
:10CBC000B5FA0446FEF780F8F8BD0000F8B5FFF7A7
:10CBD0005BFB8408FFF758FB084909684843054692
:10CBE000FFF73EFB471EFFF74FFB47433E462246FB
:10CBF00029463046FEF770F8F8BD0000842000207A
:10CC000010B50446002010BD70B5164800781421F8
:10CC100048431449091D4418FFF736FB61888842D0
:10CC200014DAFFF731FB61880D1AFFF72DFB860838
:10CC3000A388E268D2185019226951193246FEF7CA
:10CC40004BF8FFF721FB084908600AE0A588E36874
:10CC5000581963889A082169FEF73EF860880249EE
:10CC6000086070BD0C2600208C20002010B501202B
:10CC7000FFF760FE10BD000010B50F4800680821E6
:10CC80000840002814D10D480078142148430B496E
:10CC9000091D441860880A490988401A6080608824
:10CCA000002802D1FCF71CFE01E0FFF7ADFF01E018
:10CCB000FEF7D8FC10BD0000942000200C260020B8
:10CCC0008C20002010B50648006808210840002884
:10CCD00003D1012000F032F801E000F013F810BD9C
:10CCE0009420002010B5FCF749FD10BD10B5034994
:10CCF00009788900024A5058804710BD79200020E9
:10CD000038D4010010B5054800680821884303495C
:10CD100008600348007800F011F810BD942000204E
:10CD20007920002010B5034909788900024A50583B
:10CD3000804710BD792000204CD4010010B5044676
:10CD400002480470FFF7D2FF10BD000079200020D8
:10CD500010B504462046FFF75FFC2046FCF740F87C
:10CD600010BD000010B506480068082108400028E2
:10CD700002D1FFF7B7FF01E0FFF7C4FF10BD0000CD
:10CD800094200020FEB505460C46FFF77DFA0746C5
:10CD900039462046FBF7E0F90646FFF775FA0746E5
:10CDA00039462846FBF7D8F901900198864204D10C
:10CDB000601B8008084908600DE0FFF765FA074628
:10CDC000FFF762FA014600902846FBF7C5F9781A8A
:10CDD000800801490860FEBD802000200246501AEC
:10CDE0000002000A7047000070B504460D48006854
:10CDF000002812D00B4AA169606912689047054665
:10CE000000BF2E46002E06D000BF0022114630463D
:10CE1000FBF704FD00BF00BF02E06169A06988471D
:10CE200070BD0000C0200020FEB500200190114818
:10CE30000468114807686846FDF758FE0546FEF786
:10CE400095FA0646002D05D001AA21460098FDF767
:10CE5000A1FE01260198FEF7D3FA002800D0012692
:10CE6000002E02D03846FCF765FD0020034908700B
:10CE7000FEBD0000B0200020AC200020C520002016
:10CE800010B51420FBF79AFA10BD000010B519492F
:10CE90000968002902D1174908602AE0154A01688B
:10CEA0001268126891420DD812490968096802682F
:10CEB000891A104A126811600E490968C1610D494A
:10CEC000086016E002680B4C2368216803E00C68D8
:10CED000121B0B46C969002902D00C689442F6D394
:10CEE000002902D00C68A41A0C600260C161D861EC
:10CEF00000BF10BDAC20002030B50246164C2168A2
:10CF0000084604E0904200D103E00146C0690028D1
:10CF1000F8D100BF002800D130BD814211D10E4CA4
:10CF20002468E4690C4D2C602C462468002C08D140
:10CF300001240A4DAC600024094D2C600124094DE8
:10CF40002C700368C469CC61C869002802D00468E9
:10CF5000E418046000BFDFE7AC20002000100140AF
:10CF6000B0200020C5200020FFB581B005460E4648
:10CF70001746E900114A12688818694600F07FF9DF
:10CF80000446002C02D1042005B0F0BD0120207021
:10CF90006660FFF7DDFBA060E760049820610A98F7
:10CFA0006061E900054A126888186946097800F04E
:10CFB0007DF9FFF765FF0020E6E70000A8200020CC
:10CFC000F8B504460E46E1000C4A12688818694616
:10CFD00000F055F90546002D01D10420F8BD0220CE
:10CFE00028706E60E100054A126888186946097861
:10CFF00000F05CF9FFF744FF0020EFE7A8200020D5
:10D00000F8B51F480068002839D00027FFF7A0FBBB
:10D0100000901C4801680098FFF7E0FE064618489B
:10D02000056811E02868B04200D90FE02868361A78
:10D030002868C7192C46ED69207C002804D0002000
:10D0400020742046FFF7D0FE002DEBD100BF0E4824
:10D0500000780E490978884209D10C480078401CB4
:10D06000C0B20A490870022801D1002008700748A0
:10D070000078800006490F50FFF702FF00BFF8BD9F
:10D08000AC200020B0200020BC200020BD200020CB
:10D09000B420002010B51120FBF790F910BD00005E
:10D0A000FEB500BF0023184A05211846FBF72AFCED
:10D0B000044600BF2546002D06D000BF00221146C1
:10D0C0002846FBF7ABFB00BF00BF00BF0F4A0121A2
:10D0D0000F48FBF7F7FB0190072001210A460023C8
:10D0E0001F46009354000C439D002C433D022C43EB
:10D0F000009D2D042C4305252D070602AD19860041
:10D10000AC5100BF00BFFEBD04210020ED92010024
:10D11000E4D3010070B504461D4610881230A842C1
:10D1200001D90C2070BD1120168888551088401C2C
:10D1300010801020168888551088401C10800F23FE
:10D1400007E0E05C16888855581E43B21088401CE2
:10D150001080002BF5DA0020E4E730B50446108893
:10D16000C01C984201D90C2030BD022015884855BA
:10D170001088401C10800A20158848551088401CD3
:10D18000108015884C551088401C10800020EBE75B
:10D1900002460A70FF200002104000124870022070
:10D1A000704710B5FCF760FA10BD00000121814006
:10D1B000024A12688A4301490A60704764200020CD
:10D1C00038B5054620480088204988423BD0204891
:10D1D0000078401C1E4908701E48007B0978884270
:10D1E0000FDB1D491848008875DF0446002C07D066
:10D1F00018488069002803D016488169204688476E
:10D2000021E00020124908701248007C00280FD04D
:10D210003B210D48008876DF0446002C07D00D48DE
:10D220008069002803D00B4881692046884700BFE9
:10D2300008484069002806D0002000900548416950
:10D240006846884700BF38BD4E200020FFFF000021
:10D250004C200020382400204420002010B5FCF78A
:10D260002FFD012802D0032804D101E0002403E0AF
:10D27000012401E0022400BF00BF204610BD70B5AC
:10D2800002460B465078401CC1B29078884200D1CB
:10D2900000211078884201D1002070BD19705078AB
:10D2A0001826704355682C182046F6E741707047E1
:10D2B000FFB583B015460D9F0C9E01970096022284
:10D2C000069B0499039800F015F80446002C02D040
:10D2D000204607B0F0BD0197009610222946069B14
:10D2E000039800F007F80446002C01D02046F0E730
:10D2F0000020EEE7FFB587B006461D46109C0020D3
:10D30000069020880590002749E0B9007068411810
:10D310000A88684682804988C180002202A901A843
:10D3200065DF03900398002802D003980BB0F0BD8E
:10D330006846017A0998814230D10698002801D0C8
:10D34000002000E00220009020886946097A4118F8
:10D35000009809181198814201DD0C20E6E7069833
:10D3600000280AD12088401C208021880898685411
:10D370002088401C2080012006902088421902A9A4
:10D3800001A865DF03900398002801D00398CDE73A
:10D3900021886846007A0818208000BF7F1C3088EA
:10D3A000B842B2DC069800280ED021880598401CAF
:10D3B000081A80B204900498FF2801DD0C20B5E71C
:10D3C0000498C1B2059829540020AFE701460879B6
:10D3D000002802D1087B002801D0012070470020DE
:10D3E000FCE70000E420002003010100020000012E
:10D3F0001423002004000000040003001D94010019
:10D4000054240020CBB70100C9AE010085AD010056
:10D41000DDAF0100C5B7010081AE01007FAD0100A5
:10D42000BFAF0100BFB701008DAD010079AD0100B4
:10D43000A5AF0100FFFFFFFFA5CB0100CDCB010091
:10D44000E9CA010049CB010015CB0100C5CC0100A0
:10D45000A19D01001D9D010065CD0100FDAF0100F2
:10D4600080D4010000200020E4000000608501005D
:10D4700064D50100E42000200C0E0000708501003E
:10D480000000FFFF0A18010000000000000000007B
:10D49000000000000000000000000000000000008C
:10D4A000000000000000000000000000000000007C
:10D4B000000000000000000000000000000000006C
:10D4C0000000FFFF0000000000000000000000005E
:10D4D000000000000000000000000000000000004C
:10D4E000000000000000000000000000000000003C
:10D4F000000000000000000000000000000000002C
:10D50000000000000000000000000000000000001B
:10D51000000000000000000000000000000000000B
:10D5200000000000000000000000000000000000FB
:10D5300000000000000000000000000000000000EB
:10D5400000000000000000000000000000000000DB
:10D5500000000000000000000000000000000000CB
:04D560000024F400AF
:04000005000180C1B5
:00000001FF
